:03000000020AFCF5
:0C0AFC00787FE4F6D8FD758136020B43CC
:100DA800536A615F313030305F496E697428292099
:100DB8006661696C75726500536A615F3130303005
:100DC8005F496E697428292073756365737300C061
:0F0DD800F9A4B0999282F880908883C6A1868E84
:030F1300011304C3
:030F1700DFFE22D8
:100EAC00AE07AF061EEF600C7FF5120F177FF51221
:050EBC000F1780EE227B
:100ED400E4FEEEC39F5009E4FD0DBD21FC0E80F23B
:010EE40022EB
:080EF3007F147EF8DEFEDFFA39
:010EFB0022D4
:080EFC00EF900DD793F5902251
:070F0C00D2B8D2A8C288226E
:0E0EE500759850438920758DFDD28ED2AF22B4
:080F04008F993099FDC299227A
:100EC1001208F6FF600C120F04740129F9E43AFAD2
:030ED10080EE228E
:100E96007511FE75121F851282851183EFF0E06FC2
:060EA6006002D322C3220A
:100A6D00A9077511FE751210851282851183E9F0A3
:100A7D007511FE751211851282851183EDF07511B8
:100A8D00FE751212851282851183EBF07511FE75BC
:100A9D001213851282851183E528F0E06528700216
:100AAD00E5276002D3227511FE7512148512828519
:100ABD001183E52AF07511FE7512158512828511C7
:100ACD0083E52CF07511FE75121685128285118342
:100ADD00E52EF07511FE751217851282851183E5CD
:0F0AED0030F0E065307002E52F6002D322C322A3
:10093500EF12090F09610A099A20096628096E3222
:10094500097350097864097D7D098A900982C8096F
:10095500A2E80992F40992FA000009AA7522EF802B
:10096500037522877523FF803E75220E802275222E
:1009750049800D7522048018752203801375224362
:1009850075231B80227522807523FA801A75220132
:1009950075231C8012E4F522752316800AE4F522DE
:1009A5007523148002D3227511FE751206851282F5
:1009B500851183E522F0E065226002D3227511FEE0
:1009C500751207851282851183E523F0E0652360A2
:0409D50002D322C364
:0109D90022FB
:100E66007511FE751200851282851183E0F51EEF5D
:080E7600F0E0B50702C322D32E
:010E7E002251
:100E7F007511FE75120985128285118374AAF0E02F
:070E8F00B4AA02C322D32222
:100E4C007511FE751200851282851183E0F52274EE
:090E5C0001F0E030E002C322D3F2
:010E6500226A
:100CE8007511FE751201851282851183EFF024FEBD
:100CF800601224FE602224FC603224F86004240F71
:100D0800703EC3227511FE75120285128285118309
:100D1800E020E502C322D3227511FE751202851266
:100D280082851183E030E002D322C3227511FE755B
:100D38001202851282851183E020E102C322D322A8
:020D4800D322B4
:100DE7007511FE751202851282851183E0FF20E3DB
:100DF700037F0122EF20E2037F0222EF30E4037F2B
:100E070003227511FE751210A812AC117D017E0028
:0B0E17007F041208D07F01120CE81FBE
:010E220022AD
:060C77008B328A33893440
:100C7D007511FE751202851282851183E0FF30E237
:100C8D00EF7511FE751210ED04851282851183F03A
:100C9D007511FE7512118512828511837401F0751F
:100CAD0011FE7512128512828511837404F075116F
:100CBD00FE751213851282851183E536F07511FECE
:100CCD00751214AF057E00A812AC117D01AB32AACE
:0B0CDD0033A9341208D07F01020CE89C
:100D4A007511FE751202851282851183E0FE30E26A
:100D5A00EF7511FE7512108512828511837402F0E7
:100D6A007511FE75121185128285118314F07511A1
:100D7A00FE7512128512828511837404F07511FEB4
:100D8A00751213851282851183EDF07511FE7512A5
:0E0D9A0014851282851183EFF07F01020CE8B0
:1009DA00C2AF120E4C92003000037F0122120E7F2A
:1009EA0092003000037F02227FC8120E96920030D6
:1009FA0000037F0322752700752801E4F529F52AEB
:100A0A00F52BF52CF52DF52EF52FF5307B04FA7D17
:100A1A0001FC7F04120A6D9200300001227F7D12D0
:100A2A00093592003000037F05227511FE75120800
:100A3A00851282851183741AF07511FE7512048568
:100A4A001282851183741DF07511FE7512008512CC
:100A5A0082851183E054FEF0E060037F0622D2AF64
:020A6A007F000B
:010A6C002267
:100E2300EF247D6010146013146016240470197D80
:100E3300017F0A80107D03E4FF800A7D047F0D801B
:090E4300047D057F0E120D4A2208
:03000300020B8865
:0D0B8800C0E0C0F0C083C082C0D075D008AE
:100B95007531007511FE751203851282851183E08A
:100BA50030E0507511FE751210851282851183E0B3
:100BB500FE540FFFEE20E6367511FE7512138512F1
:100BC50082851183E0F5317511FE751214EF24FF4E
:100BD500FFE434FFFEAA11A9127B0178147C007D85
:100BE500001208D0AF14120EFCAF31120E237F0491
:030BF500120CE8F7
:0B0BF800D0D0D082D083D0F0D0E0320B
:100C0300E4F521D2A2C2A0C2AF120F0C120EE5125C
:100C130009DAAE07EE7BFF600B7A0D79A8120EC1DD
:100C2300AF06800B7A0D79C0120EC1D2AF7F0B12C3
:100C33000EFC20A2077D837F0B120D4AE514B4033B
:100C4300F1E4FDFC7FF4120F17B2A30DBD00010CFC
:100C5300BC01F1BDF4EEC2A3E4FCFD7F01120EACB6
:100C63000DBD00010CBC01F3BDF4F07D837F0812C0
:040C73000D4A80BEE8
:100B0800020C03E493A3F8E493A34003F68001F2F4
:100B180008DFF48029E493A3F85407240CC8C333EE
:100B2800C4540F4420C8834004F456800146F6DFBD
:100B3800E4800B0102040810204080900F13E47E2B
:100B4800019360BCA3FF543F30E509541FFEE493B2
:100B5800A360010ECF54C025E060A840B8E493A379
:100B6800FAE493A3F8E493A3C8C582C8CAC583CAA4
:100B7800F0A3C8C582C8CAC583CADFE9DEE780BE5C
:010F160000DA
:10080000E709F608DFFA8046E709F208DFFA803EDA
:1008100088828C83E709F0A3DFFA8032E309F608C7
:10082000DFFA8078E309F208DFFA807088828C832F
:10083000E309F0A3DFFA806489828A83E0A3F608E3
:10084000DFFA805889828A83E0A3F208DFFA804CBD
:1008500080D280FA80C680D4806980F28033801094
:1008600080A680EA809A80A880DA80E280CA8033FD
:1008700089828A83ECFAE493A3C8C582C8CCC58375
:10088000CCF0A3C8C582C8CCC583CCDFE9DEE78045
:100890000D89828A83E493A3F608DFF9ECFAA9F0C4
:1008A000EDFB2289828A83ECFAE0A3C8C582C8CC1A
:1008B000C583CCF0A3C8C582C8CCC583CCDFEADE33
:1008C000E880DB89828A83E493A3F208DFF980CC95
:1008D00088F0EF60010E4E60C388F0ED2402B4048E
:1008E0000050B9F582EB2402B4040050AF23234535
:0608F00082239008507302
:1008F600BB010689828A83E0225002E722BBFE0200
:09090600E32289828A83E4932232
:10090F00D083D082F8E4937012740193700DA3A377
:10091F0093F8740193F5828883E47374029368608B
:06092F00EFA3A3A380DF8B
:00000001FF
