:03000000020C6887
:0C0C6800787FE4F6D8FD758145020CAFE2
:100E2600536A615F313030305F496E69742829201A
:100E36006661696C75726500536A615F3130303086
:100E46005F496E697428292073756365737300C0E2
:100E5600F9A4B0999282F880908883C6A1868E8183
:040E6600828384857A
:030F58000127026C
:100F1900E4FEEEC39F5009E4FD0DBD21FC0E80F2F5
:010F290022A5
:080F38007F147EF8DEFEDFFAF3
:010F4000228E
:080F4100EF900E5593F590228C
:070F5100D2B8D2A8C2882229
:0E0F2A00759850438920758DFDD28ED2AF226E
:080F49008F993099FDC2992235
:100F06001208F6FF600C120F49740129F9E43AFA47
:030F160080EE2248
:100EF0007525FE75261F852682852583EFF0E06F18
:060F00006002D322C322AF
:100BD900A9077525FE752610852682852583E9F0E6
:100BE9007525FE752611852682852583EDF07525E7
:100BF900FE752612852682852583EBF07525FE75FF
:100C09002613852682852583E53DF0E0653D700242
:100C1900E53C6002D3227525FE752614852682855A
:100C29002583E53FF07525FE7526158526828525E0
:100C390083E541F07525FE7526168526828525836F
:100C4900E543F07525FE752617852682852583E5FA
:0F0C590045F0E065457002E5446002D322C322F6
:100A9D00EF12090F0AC90A0B02200ACE280AD63214
:100AAD000ADB500AE0640AE57D0AF2900AEAC80BF7
:100ABD000AE80AFAF40AFAFA00000B127537EF8009
:100ACD00037537877538FF803E75370E8022753771
:100ADD0049800D75370480187537038013753743BA
:100AED0075381B80227537807538FA801A75370175
:100AFD0075381C8012E4F537753816800AE4F53721
:100B0D007538148002D3227525FE7526068526823A
:100B1D00852583E537F0E065376002D3227525FE24
:100B2D00752607852682852583E538F0E0653860D2
:040B3D0002D322C3FA
:010B41002291
:100EC0007525FE752600852682852583E0F515EFBC
:080ED000F0E0B50702C322D3D4
:010ED80022F7
:100ED9007525FE75260985268285258374AAF0E085
:070EE900B4AA02C322D322C8
:100EA6007525FE752600852682852583E0F537742F
:090EB60001F0E030E002C322D398
:010EBF002210
:100D65007525FE752601852682852583EFF024FEEF
:100D7500601224FE602224FC603224F86004240FF3
:100D8500703EC3227525FE7526028526828525833C
:100D9500E020E502C322D3227525FE7526028526AD
:100DA50082852583E030E002D322C3227525FE75B6
:100DB5002602852682852583E020E102C322D322EF
:020DC500D32237
:100E6A007525FE752602852682852583E0FF20E307
:100E7A00037F0122EF20E2037F0222EF30E4037FA7
:100E8A0003227525FE752610A826AC257D017E0055
:0B0E9A007F041208D07F01120D651FBD
:010EA500222A
:060CF4008B108A11891229
:100CFA007525FE752602852682852583E0FF30E26A
:100D0A00EF7525FE752610ED04852682852583F06C
:100D1A007525FE752611852682852583E527F075BA
:100D2A0025FE7526128526828525837401F0752590
:100D3A00FE752613852682852583E514F07525FE22
:100D4A00752614AF057E00A826AC257D01AB10AA36
:0B0D5A0011A9121208D07F01020D65E4
:100DC7007525FE752602852682852583E0FE30E29D
:100DD700EF7525FE7526108526828525837402F01A
:100DE7007525FE752611852682852583E527F075ED
:100DF70025FE7526128526828525837401F07525C3
:100E0700FE752613852682852583EDF07525FE75EB
:0F0E17002614852682852583EFF07F01020D6565
:100B4200C2AF120EA692003000037F0122120ED90C
:100B520092003000037F02227FC8120EF092003012
:100B620000037F0322753C00753D0EE4F53EF53F20
:100B7200F54075410EF542F543F54475450E7B018E
:100B8200FA7D0EFC7F01120BD992003000037F0424
:100B9200227F7D120A9D92003000037F0522752577
:100BA200FE752608852682852583741AF07525FE32
:100BB200752604852682852583741DF07525FE75AC
:100BC2002600852682852583E054FEF0E060037FBF
:060BD2000622D2AF7F00F5
:010BD80022FA
:030003000209F2FD
:0D09F200C0E0C0F0C083C082C0D075D00846
:1009FF00E4FF7525FE752603852682852583E02075
:100A0F00E003020A927525FE75261085268285253C
:100A1F0083E0FD540FFEED20E6647525FE75261369
:100A2F008526828525837525FE752614AF0EEF2446
:100A3F00FFFFE434FFFEAA25A9267B01782A7C005C
:100A4F007D001208D07525FE752612852682852514
:100A5F0083E024FC601024FC6014240670167528B3
:100A6F0000852A29800E752100852A22800675238C
:100A7F0000852A24E4FF120F41AF2A120F417F0491
:030A8F00120D65E0
:0B0A9200D0D0D082D083D0F0D0E03272
:10093500E4F534F535F536C2A0C2AF120F51120FEA
:100945002A120B42AE07EE7BFF60097A0E7926125A
:100955000F0680097A0E793E120F06D2AFAF061246
:100965000F41E52AB40A0A7527027D827F02120D1E
:10097500C7E52AB40B0A7527047D827F03120DC7CC
:10098500E52AB40C0A7527087D827F04120DC7E598
:100995002AB4070FE4FF120F417527027D827F0AF3
:1009A500120DC7E52AB4080FE4FF120F417527049D
:1009B5007D827F0B120DC7E52AB4090FE4FF120FE4
:1009C500417527087D827F0C120DC77525FE75269A
:1009D50002852682852583E0FC7F64120F19EC30A1
:0D09E500E680120B427FEE120F49020967F7
:100C7400020935E493A3F8E493A34003F68001F258
:100C840008DFF48029E493A3F85407240CC8C33381
:100C9400C4540F4420C8834004F456800146F6DF50
:100CA400E4800B0102040810204080900F58E47E79
:100CB400019360BCA3FF543F30E509541FFEE49345
:100CC400A360010ECF54C025E060A840B8E493A30C
:100CD400FAE493A3F8E493A3C8C582C8CAC583CA37
:100CE400F0A3C8C582C8CAC583CADFE9DEE780BEEF
:010F5B000095
:10080000E709F608DFFA8046E709F208DFFA803EDA
:1008100088828C83E709F0A3DFFA8032E309F608C7
:10082000DFFA8078E309F208DFFA807088828C832F
:10083000E309F0A3DFFA806489828A83E0A3F608E3
:10084000DFFA805889828A83E0A3F208DFFA804CBD
:1008500080D280FA80C680D4806980F28033801094
:1008600080A680EA809A80A880DA80E280CA8033FD
:1008700089828A83ECFAE493A3C8C582C8CCC58375
:10088000CCF0A3C8C582C8CCC583CCDFE9DEE78045
:100890000D89828A83E493A3F608DFF9ECFAA9F0C4
:1008A000EDFB2289828A83ECFAE0A3C8C582C8CC1A
:1008B000C583CCF0A3C8C582C8CCC583CCDFEADE33
:1008C000E880DB89828A83E493A3F208DFF980CC95
:1008D00088F0EF60010E4E60C388F0ED2402B4048E
:1008E0000050B9F582EB2402B4040050AF23234535
:0608F00082239008507302
:1008F600BB010689828A83E0225002E722BBFE0200
:09090600E32289828A83E4932232
:10090F00D083D082F8E4937012740193700DA3A377
:10091F0093F8740193F5828883E47374029368608B
:06092F00EFA3A3A380DF8B
:00000001FF
