:03000000020AFEF3
:0C0AFE00787FE4F6D8FD758136020B45C8
:100D8900536A615F313030305F496E6974282920B8
:100D99006661696C75726500536A615F3130303024
:100DA9005F496E697428292073756365737300C080
:0F0DB900F9A4B0999282F880908883C6A1868EA3
:030EF400011208E0
:030EF800DFFE22F8
:100E8D00AE07AF061EEF600C7FF5120EF87FF51260
:050E9D000EF880EE22BA
:100EB500E4FEEEC39F5009E4FD0DBD21FC0E80F25A
:010EC500220A
:080ED4007F147EF8DEFEDFFA58
:010EDC0022F3
:080EDD00EF900DB893F590228F
:070EED00D2B8D2A8C288228E
:0E0EC600759850438920758DFDD28ED2AF22D3
:080EE5008F993099FDC299229A
:100EA2001208F6FF600C120EE5740129F9E43AFA11
:030EB20080EE22AD
:100E77007510FE75111F851182851083EFF0E06FE5
:060E87006002D322C32229
:100A6F00A9077510FE751110851182851083E9F0A5
:100A7F007510FE751111851182851083EDF07510BB
:100A8F00FE751112851182851083EBF07510FE75BE
:100A9F001113851182851083E528F0E06528700217
:100AAF00E5276002D3227510FE751114851182851A
:100ABF001083E52AF07510FE7511158511828510CA
:100ACF0083E52CF07510FE75111685118285108344
:100ADF00E52EF07510FE751117851182851083E5CF
:0F0AEF0030F0E065307002E52F6002D322C322A1
:10093500EF12090F09610A099A20096628096E3222
:10094500097350097864097D7D098A900982C8096F
:10095500A2E80992F40992FA000009AA7522EF802B
:10096500037522877523FF803E75220E802275222E
:1009750049800D7522048018752203801375224362
:1009850075231B80227522807523FA801A75220132
:1009950075231C8012E4F522752316800AE4F522DE
:1009A5007523148002D3227510FE751106851182F8
:1009B500851083E522F0E065226002D3227510FEE2
:1009C500751107851182851083E523F0E0652360A5
:0409D50002D322C364
:0109D90022FB
:100E47007510FE751100851182851083E0F51DEF81
:080E5700F0E0B50702C322D34D
:010E5F002270
:100E60007510FE75110985118285108374AAF0E052
:070E7000B4AA02C322D32241
:100E2D007510FE751100851182851083E0F5227411
:090E3D0001F0E030E002C322D311
:010E46002289
:100C76007510FE751101851182851083EFF024FE33
:100C8600601224FE602224FC603224F86004240FE3
:100C9600703EC3227510FE75110285118285108380
:100CA600E020E502C322D3227510FE7511028511DC
:100CB60082851083E030E002D322C3227510FE75D0
:100CC6001102851182851083E020E102C322D3221E
:020CD600D32227
:100DC8007510FE751102851182851083E0FF20E3FE
:100DD800037F0122EF20E2037F0222EF30E4037F4A
:100DE80003227510FE751110A811AC107D017E004C
:0B0DF8007F041208D07F01120C761F50
:010E030022CC
:060C05008B328A338934B2
:100C0B007510FE751102851182851083E0FF30E2AD
:100C1B00EF7510FE751110ED04851182851083F0B0
:100C2B007510FE7511118511828510837401F07595
:100C3B0010FE7511128511828510837408F07510E2
:100C4B00FE751113851182851083E536F07510FE44
:100C5B00751114AF057E00A811AC107D01AB32AA43
:0B0C6B0033A9341208D07F01020C7680
:100CD8007510FE751102851182851083E0FE30E2E1
:100CE800EF7510FE7511108511828510837402F05E
:100CF8007510FE75111185118285108314F0751019
:100D0800FE7511128511828510837408F07510FE26
:100D1800751113851182851083EDF07510FE75111C
:0E0D280014851182851083EFF07F01020C7696
:1009DA00C2AF120E2D92003000037F0122120E6068
:1009EA0092003000037F02227FC8120E77920030F5
:1009FA0000037F0322752700752801E4F529F52AEB
:100A0A00F52BF52CF52DF52EF52FF5307B08FA7D13
:100A1A0001FC7F08120A6F92003000037F04227FD4
:100A2A007D12093592003000037F05227510FE758C
:100A3A001108851182851083741AF07510FE7511DC
:100A4A0004851182851083741DF07510FE751100DE
:100A5A00851182851083E054FEF0E060037F062250
:040A6A00D2AF7F0088
:010A6E002265
:100E0400EF247D6010146013146016240470197D9F
:100E1400017F0A80107D03E4FF800A7D047F0D803A
:090E2400047D057F0E120CD8229A
:03000300020B8A63
:0D0B8A00C0E0C0F0C083C082C0D075D008AC
:100B97007531007510FE751103851182851083E08C
:100BA70030E0507510FE751110851182851083E0B5
:100BB700FE540FFFEE20E6367510FE7511138511F2
:100BC70082851083E0F5317510FE751114EF24FF4F
:100BD700FFE434FFFEAA10A9117B0178137C007D86
:100BE700001208D0AF13120EDDAF31120E047F04CE
:030BF700120C7667
:0B0BFA00D0D0D082D083D0F0D0E03209
:100D3600E4F521D2A2C2A0C2AF120EED120EC61267
:100D460009DAAE07EE7BFF600B7A0D7989120EA2E7
:100D5600AF06800B7A0D79A1120EA2D2AF7F0C12CC
:100D66000EDD20A2077D837F0C120CD8E513B40498
:100D760009C2A17D837F09120CD8E513B40CE3D216
:030D8600A180DF6A
:100B0A00020D36E493A3F8E493A34003F68001F2BE
:100B1A0008DFF48029E493A3F85407240CC8C333EC
:100B2A00C4540F4420C8834004F456800146F6DFBB
:100B3A00E4800B0102040810204080900EF4E47E49
:100B4A00019360BCA3FF543F30E509541FFEE493B0
:100B5A00A360010ECF54C025E060A840B8E493A377
:100B6A00FAE493A3F8E493A3C8C582C8CAC583CAA2
:100B7A00F0A3C8C582C8CAC583CADFE9DEE780BE5A
:010EF70000FA
:10080000E709F608DFFA8046E709F208DFFA803EDA
:1008100088828C83E709F0A3DFFA8032E309F608C7
:10082000DFFA8078E309F208DFFA807088828C832F
:10083000E309F0A3DFFA806489828A83E0A3F608E3
:10084000DFFA805889828A83E0A3F208DFFA804CBD
:1008500080D280FA80C680D4806980F28033801094
:1008600080A680EA809A80A880DA80E280CA8033FD
:1008700089828A83ECFAE493A3C8C582C8CCC58375
:10088000CCF0A3C8C582C8CCC583CCDFE9DEE78045
:100890000D89828A83E493A3F608DFF9ECFAA9F0C4
:1008A000EDFB2289828A83ECFAE0A3C8C582C8CC1A
:1008B000C583CCF0A3C8C582C8CCC583CCDFEADE33
:1008C000E880DB89828A83E493A3F208DFF980CC95
:1008D00088F0EF60010E4E60C388F0ED2402B4048E
:1008E0000050B9F582EB2402B4040050AF23234535
:0608F00082239008507302
:1008F600BB010689828A83E0225002E722BBFE0200
:09090600E32289828A83E4932232
:10090F00D083D082F8E4937012740193700DA3A377
:10091F0093F8740193F5828883E47374029368608B
:06092F00EFA3A3A380DF8B
:00000001FF
