:03000000020AFEF3
:0C0AFE00787FE4F6D8FD758136020B45C8
:100DA500536A615F313030305F496E69742829209C
:100DB5006661696C75726500536A615F3130303008
:100DC5005F496E697428292073756365737300C064
:0F0DD500F9A4B0999282F880908883C6A1868E87
:030F1600011202C3
:030F1A00DFFE22D5
:060E4900C2A4C2A6AF1313
:100E4F00AE07AF061EEF600C7FF5120F1A7FF5127B
:050E5F000F1A80EE22D5
:100ED700E4FEEEC39F5009E4FD0DBD21FC0E80F238
:010EE70022E8
:080EF6007F147EF8DEFEDFFA36
:010EFE0022D1
:080EFF00EF900DD493F5902251
:070F0F00D2B8D2A8C288226B
:0E0EE800759850438920758DFDD28ED2AF22B1
:080F07008F993099FDC2992277
:100EC4001208F6FF600C120F07740129F9E43AFACC
:030ED40080EE228B
:100EAE007510FE75111F851182851083EFF0E06FAE
:060EBE006002D322C322F2
:100A6F00A9077510FE751110851182851083E9F0A5
:100A7F007510FE751111851182851083EDF07510BB
:100A8F00FE751112851182851083EBF07510FE75BE
:100A9F001113851182851083E528F0E06528700217
:100AAF00E5276002D3227510FE751114851182851A
:100ABF001083E52AF07510FE7511158511828510CA
:100ACF0083E52CF07510FE75111685118285108344
:100ADF00E52EF07510FE751117851182851083E5CF
:0F0AEF0030F0E065307002E52F6002D322C322A1
:10093500EF12090F09610A099A20096628096E3222
:10094500097350097864097D7D098A900982C8096F
:10095500A2E80992F40992FA000009AA7522EF802B
:10096500037522877523FF803E75220E802275222E
:1009750049800D7522048018752203801375224362
:1009850075231B80227522807523FA801A75220132
:1009950075231C8012E4F522752316800AE4F522DE
:1009A5007523148002D3227510FE751106851182F8
:1009B500851083E522F0E065226002D3227510FEE2
:1009C500751107851182851083E523F0E0652360A5
:0409D50002D322C364
:0109D90022FB
:100E7E007510FE751100851182851083E0F51EEF49
:080E8E00F0E0B50702C322D316
:010E96002239
:100E97007510FE75110985118285108374AAF0E01B
:070EA700B4AA02C322D3220A
:100E64007510FE751100851182851083E0F52274DA
:090E740001F0E030E002C322D3DA
:010E7D002252
:100CE6007510FE751101851182851083EFF024FEC3
:100CF600601224FE602224FC603224F86004240F73
:100D0600703EC3227510FE7511028511828510830F
:100D1600E020E502C322D3227510FE75110285116B
:100D260082851083E030E002D322C3227510FE755F
:100D36001102851182851083E020E102C322D322AD
:020D4600D322B6
:100DE4007510FE751102851182851083E0FF20E3E2
:100DF400037F0122EF20E2037F0222EF30E4037F2E
:100E040003227510FE751110A811AC107D017E002F
:0B0E14007F041208D07F01120CE61FC3
:010E1F0022B0
:060C76008B328A33893441
:100C7C007510FE751102851182851083E0FF30E23C
:100C8C00EF7510FE751110ED04851182851083F03F
:100C9C007510FE7511118511828510837401F07524
:100CAC0010FE75111285118285108304F07510FEEB
:100CBC00751113851182851083E536F07510FE755C
:100CCC001114AF057E00A811AC107D01AB32AA3314
:0A0CDC00A9341208D07F01020CE6D3
:100D48007510FE751102851182851083E0FE30E270
:100D5800EF7510FE7511108511828510837402F0ED
:100D68007510FE75111185118285108314F07510A8
:100D7800FE75111285118285108304F07510FE75B9
:100D88001113851182851083EDF07510FE7511140D
:0D0D9800851182851083EFF07F01020CE6CB
:1009DA00C2AF120E6492003000037F0122120E97FA
:1009EA0092003000037F02227FC8120EAE920030BE
:1009FA0000037F0322752700752801E4F529F52AEB
:100A0A00F52BF52CF52DF52EF52FF5307B02FA7D19
:100A1A0001FC7F02120A6F92003000037F04227FDA
:100A2A007D12093592003000037F05227510FE758C
:100A3A001108851182851083741AF07510FE7511DC
:100A4A0004851182851083741DF07510FE751100DE
:100A5A00851182851083E054FEF0E060037F062250
:040A6A00D2AF7F0088
:010A6E002265
:100E2000EF247D6010146013146016240470197D83
:100E3000017F0A80107D03E4FF800A7D047F0D801E
:090E4000047D057F0E120D48220D
:03000300020B8A63
:0D0B8A00C0E0C0F0C083C082C0D075D008AC
:100B97007531007510FE751103851182851083E08C
:100BA70030E0507510FE751110851182851083E0B5
:100BB700FE540FFFEE20E6367510FE7511138511F2
:100BC70082851083E0F5317510FE751114EF24FF4F
:100BD700FFE434FFFEAA10A9117B0178147C007D85
:100BE700001208D0AF14120EFFAF31120E207F048F
:030BF700120CE6F7
:0B0BFA00D0D0D082D083D0F0D0E03209
:100C0500E4F521751305D2A1C2A0C2AF120F0F12D0
:100C15000EE81209DAAE07EE7BFF600B7A0D79A5B7
:100C2500120EC4AF06800B7A0D79BD120EC4D2AF79
:100C35007F0A120EFF20A1077D837F0A120D48E56A
:100C450014B402F1D2A2C2A3120E49C2A2D2A312B7
:100C55000E49C2A2C2A3D2A4120E4BC2A2C2A3C203
:100C6500A4D2A6AF13120E4F7D837F07120D4880C5
:010C7500C4BA
:100B0A00020C05E493A3F8E493A34003F68001F2F0
:100B1A0008DFF48029E493A3F85407240CC8C333EC
:100B2A00C4540F4420C8834004F456800146F6DFBB
:100B3A00E4800B0102040810204080900F16E47E26
:100B4A00019360BCA3FF543F30E509541FFEE493B0
:100B5A00A360010ECF54C025E060A840B8E493A377
:100B6A00FAE493A3F8E493A3C8C582C8CAC583CAA2
:100B7A00F0A3C8C582C8CAC583CADFE9DEE780BE5A
:010F190000D7
:10080000E709F608DFFA8046E709F208DFFA803EDA
:1008100088828C83E709F0A3DFFA8032E309F608C7
:10082000DFFA8078E309F208DFFA807088828C832F
:10083000E309F0A3DFFA806489828A83E0A3F608E3
:10084000DFFA805889828A83E0A3F208DFFA804CBD
:1008500080D280FA80C680D4806980F28033801094
:1008600080A680EA809A80A880DA80E280CA8033FD
:1008700089828A83ECFAE493A3C8C582C8CCC58375
:10088000CCF0A3C8C582C8CCC583CCDFE9DEE78045
:100890000D89828A83E493A3F608DFF9ECFAA9F0C4
:1008A000EDFB2289828A83ECFAE0A3C8C582C8CC1A
:1008B000C583CCF0A3C8C582C8CCC583CCDFEADE33
:1008C000E880DB89828A83E493A3F208DFF980CC95
:1008D00088F0EF60010E4E60C388F0ED2402B4048E
:1008E0000050B9F582EB2402B4040050AF23234535
:0608F00082239008507302
:1008F600BB010689828A83E0225002E722BBFE0200
:09090600E32289828A83E4932232
:10090F00D083D082F8E4937012740193700DA3A377
:10091F0093F8740193F5828883E47374029368608B
:06092F00EFA3A3A380DF8B
:00000001FF
